{
  "contractName": "ContactStorage",
  "abi": [
    {
      "anonymous": false,
      "inputs": [
        {
          "indexed": false,
          "internalType": "address",
          "name": "sender",
          "type": "address"
        },
        {
          "indexed": false,
          "internalType": "uint8",
          "name": "currentContactId",
          "type": "uint8"
        }
      ],
      "name": "ContactAdded",
      "type": "event"
    },
    {
      "anonymous": false,
      "inputs": [
        {
          "indexed": false,
          "internalType": "address",
          "name": "sender",
          "type": "address"
        }
      ],
      "name": "ContactDeleted",
      "type": "event"
    },
    {
      "anonymous": false,
      "inputs": [
        {
          "indexed": false,
          "internalType": "address",
          "name": "sender",
          "type": "address"
        }
      ],
      "name": "ContactModified",
      "type": "event"
    },
    {
      "inputs": [
        {
          "internalType": "address",
          "name": "",
          "type": "address"
        }
      ],
      "name": "userAddressToNumberOfContacts",
      "outputs": [
        {
          "internalType": "uint8",
          "name": "",
          "type": "uint8"
        }
      ],
      "stateMutability": "view",
      "type": "function",
      "constant": true
    },
    {
      "inputs": [
        {
          "internalType": "address",
          "name": "account",
          "type": "address"
        },
        {
          "internalType": "string",
          "name": "contactInfo",
          "type": "string"
        }
      ],
      "name": "setContact",
      "outputs": [],
      "stateMutability": "nonpayable",
      "type": "function"
    },
    {
      "inputs": [
        {
          "internalType": "address",
          "name": "account",
          "type": "address"
        },
        {
          "internalType": "uint8",
          "name": "deletedContactId",
          "type": "uint8"
        }
      ],
      "name": "deleteContact",
      "outputs": [],
      "stateMutability": "nonpayable",
      "type": "function"
    },
    {
      "inputs": [
        {
          "internalType": "address",
          "name": "account",
          "type": "address"
        },
        {
          "internalType": "uint8",
          "name": "modifiedContactId",
          "type": "uint8"
        },
        {
          "internalType": "string",
          "name": "modifiedContactInfo",
          "type": "string"
        }
      ],
      "name": "modifyContact",
      "outputs": [],
      "stateMutability": "nonpayable",
      "type": "function"
    },
    {
      "inputs": [
        {
          "internalType": "address",
          "name": "account",
          "type": "address"
        },
        {
          "internalType": "uint8",
          "name": "contactId",
          "type": "uint8"
        }
      ],
      "name": "getContact",
      "outputs": [
        {
          "internalType": "string",
          "name": "contactInfo",
          "type": "string"
        }
      ],
      "stateMutability": "view",
      "type": "function",
      "constant": true
    }
  ],
  "bytecode": "0x608060405234801561001057600080fd5b50610cb9806100206000396000f3fe608060405234801561001057600080fd5b50600436106100575760003560e01c80636509256f1461005c5780636f5f316a1461008c57806371e48b80146100a85780638f1796d0146100c4578063c93f5d10146100f4575b600080fd5b61007660048036038101906100719190610792565b610110565b604051610083919061086b565b60405180910390f35b6100a660048036038101906100a19190610792565b6101f9565b005b6100c260048036038101906100bd91906109c2565b610324565b005b6100de60048036038101906100d99190610a1e565b610507565b6040516100eb9190610a5a565b60405180910390f35b61010e60048036038101906101099190610a75565b610527565b005b6060600160008473ffffffffffffffffffffffffffffffffffffffff1673ffffffffffffffffffffffffffffffffffffffff16815260200190815260200160002060008360ff1660ff168152602001908152602001600020805461017390610b13565b80601f016020809104026020016040519081016040528092919081815260200182805461019f90610b13565b80156101ec5780601f106101c1576101008083540402835291602001916101ec565b820191906000526020600020905b8154815290600101906020018083116101cf57829003601f168201915b5050505050905092915050565b818073ffffffffffffffffffffffffffffffffffffffff163373ffffffffffffffffffffffffffffffffffffffff1614610268576040517f08c379a000000000000000000000000000000000000000000000000000000000815260040161025f90610bb7565b60405180910390fd5b6000600160008573ffffffffffffffffffffffffffffffffffffffff1673ffffffffffffffffffffffffffffffffffffffff1681526020019081526020016000209050604051806020016040528060008152508160008560ff1660ff16815260200190815260200160002090805190602001906102e6929190610644565b507f26858617925aeb358cd54c9e29a64dc8a78d94db69c023309965d17947a26562336040516103169190610be6565b60405180910390a150505050565b818073ffffffffffffffffffffffffffffffffffffffff163373ffffffffffffffffffffffffffffffffffffffff1614610393576040517f08c379a000000000000000000000000000000000000000000000000000000000815260040161038a90610bb7565b60405180910390fd5b6000808473ffffffffffffffffffffffffffffffffffffffff1673ffffffffffffffffffffffffffffffffffffffff168152602001908152602001600020600081819054906101000a900460ff16809291906103ee90610c30565b91906101000a81548160ff021916908360ff1602179055505060008060008573ffffffffffffffffffffffffffffffffffffffff1673ffffffffffffffffffffffffffffffffffffffff16815260200190815260200160002060009054906101000a900460ff1690506000600160008673ffffffffffffffffffffffffffffffffffffffff1673ffffffffffffffffffffffffffffffffffffffff1681526020019081526020016000209050838160008460ff1660ff16815260200190815260200160002090805190602001906104c6929190610644565b507f7d188adb8c0eabdd2ffdfeb696e5982d6254b44debee501cf45a4214ecd011f433836040516104f8929190610c5a565b60405180910390a15050505050565b60006020528060005260406000206000915054906101000a900460ff1681565b828073ffffffffffffffffffffffffffffffffffffffff163373ffffffffffffffffffffffffffffffffffffffff1614610596576040517f08c379a000000000000000000000000000000000000000000000000000000000815260040161058d90610bb7565b60405180910390fd5b6000600160008673ffffffffffffffffffffffffffffffffffffffff1673ffffffffffffffffffffffffffffffffffffffff1681526020019081526020016000209050828160008660ff1660ff1681526020019081526020016000209080519060200190610605929190610644565b507f5159b7e540e62c2d8837121e9740ee2b455ca4a4cfb994471ffac3040bfe7e49336040516106359190610be6565b60405180910390a15050505050565b82805461065090610b13565b90600052602060002090601f01602090048101928261067257600085556106b9565b82601f1061068b57805160ff19168380011785556106b9565b828001600101855582156106b9579182015b828111156106b857825182559160200191906001019061069d565b5b5090506106c691906106ca565b5090565b5b808211156106e35760008160009055506001016106cb565b5090565b6000604051905090565b600080fd5b600080fd5b600073ffffffffffffffffffffffffffffffffffffffff82169050919050565b6000610726826106fb565b9050919050565b6107368161071b565b811461074157600080fd5b50565b6000813590506107538161072d565b92915050565b600060ff82169050919050565b61076f81610759565b811461077a57600080fd5b50565b60008135905061078c81610766565b92915050565b600080604083850312156107a9576107a86106f1565b5b60006107b785828601610744565b92505060206107c88582860161077d565b9150509250929050565b600081519050919050565b600082825260208201905092915050565b60005b8381101561080c5780820151818401526020810190506107f1565b8381111561081b576000848401525b50505050565b6000601f19601f8301169050919050565b600061083d826107d2565b61084781856107dd565b93506108578185602086016107ee565b61086081610821565b840191505092915050565b600060208201905081810360008301526108858184610832565b905092915050565b600080fd5b600080fd5b7f4e487b7100000000000000000000000000000000000000000000000000000000600052604160045260246000fd5b6108cf82610821565b810181811067ffffffffffffffff821117156108ee576108ed610897565b5b80604052505050565b60006109016106e7565b905061090d82826108c6565b919050565b600067ffffffffffffffff82111561092d5761092c610897565b5b61093682610821565b9050602081019050919050565b82818337600083830152505050565b600061096561096084610912565b6108f7565b90508281526020810184848401111561098157610980610892565b5b61098c848285610943565b509392505050565b600082601f8301126109a9576109a861088d565b5b81356109b9848260208601610952565b91505092915050565b600080604083850312156109d9576109d86106f1565b5b60006109e785828601610744565b925050602083013567ffffffffffffffff811115610a0857610a076106f6565b5b610a1485828601610994565b9150509250929050565b600060208284031215610a3457610a336106f1565b5b6000610a4284828501610744565b91505092915050565b610a5481610759565b82525050565b6000602082019050610a6f6000830184610a4b565b92915050565b600080600060608486031215610a8e57610a8d6106f1565b5b6000610a9c86828701610744565b9350506020610aad8682870161077d565b925050604084013567ffffffffffffffff811115610ace57610acd6106f6565b5b610ada86828701610994565b9150509250925092565b7f4e487b7100000000000000000000000000000000000000000000000000000000600052602260045260246000fd5b60006002820490506001821680610b2b57607f821691505b60208210811415610b3f57610b3e610ae4565b5b50919050565b7f4f6e6c792061646472657373206f776e65722063616e206164642f64656c657460008201527f652f6d6f646966792068697320636f6e74616374730000000000000000000000602082015250565b6000610ba16035836107dd565b9150610bac82610b45565b604082019050919050565b60006020820190508181036000830152610bd081610b94565b9050919050565b610be08161071b565b82525050565b6000602082019050610bfb6000830184610bd7565b92915050565b7f4e487b7100000000000000000000000000000000000000000000000000000000600052601160045260246000fd5b6000610c3b82610759565b915060ff821415610c4f57610c4e610c01565b5b600182019050919050565b6000604082019050610c6f6000830185610bd7565b610c7c6020830184610a4b565b939250505056fea264697066735822122084e3c76b42c9423422af81e183b30e0a836d490cf82ea48e2dfaac58016680b964736f6c634300080b0033",
  "immutableReferences": {},
  "source": "// SPDX-License-Identifier: MIT\npragma solidity >=0.7.0 <0.9.0;\n\nimport \"./interfaces/IContactStorage.sol\";\n\ncontract ContactStorage is IContactStorage {\n    mapping(address => uint8) public userAddressToNumberOfContacts;\n    mapping(address => mapping(uint8 => string))\n        private _userAddressToContactsMapping;\n\n    modifier isAddressOwner(address account) {\n        require(\n            msg.sender == account,\n            \"Only address owner can add/delete/modify his contacts\"\n        );\n        _;\n    }\n\n    function setContact(address account, string memory contactInfo)\n        public\n        override\n        isAddressOwner(account)\n    {\n        userAddressToNumberOfContacts[account]++;\n        uint8 currentContactId = userAddressToNumberOfContacts[account];\n        mapping(uint8 => string)\n            storage contactData = _userAddressToContactsMapping[account];\n        contactData[currentContactId] = contactInfo;\n\n        emit ContactAdded(msg.sender, currentContactId);\n    }\n\n    function deleteContact(address account, uint8 deletedContactId)\n        public\n        override\n        isAddressOwner(account)\n    {\n        mapping(uint8 => string)\n            storage contactData = _userAddressToContactsMapping[account];\n        contactData[deletedContactId] = \"\";\n\n        emit ContactDeleted(msg.sender);\n    }\n\n    function modifyContact(\n        address account,\n        uint8 modifiedContactId,\n        string memory modifiedContactInfo\n    ) public override isAddressOwner(account) {\n        mapping(uint8 => string)\n            storage contactData = _userAddressToContactsMapping[account];\n        contactData[modifiedContactId] = modifiedContactInfo;\n\n        emit ContactModified(msg.sender);\n    }\n\n    function getContact(address account, uint8 contactId)\n        public\n        view\n        override\n        returns (string memory contactInfo)\n    {\n        contactInfo = _userAddressToContactsMapping[account][contactId];\n    }\n}\n",
  "sourcePath": "/Users/MBN/Desktop/Projects/my-contacts-app-smart-contracts/contracts/ContactStorage.sol",
  "compiler": {
    "name": "solc",
    "version": "0.8.11+commit.d7f03943.Emscripten.clang"
  },
  "schemaVersion": "3.4.5",
  "updatedAt": "2022-02-23T17:56:43.100Z",
  "networkType": "ethereum",
  "devdoc": {
    "kind": "dev",
    "methods": {
      "deleteContact(address,uint8)": {
        "params": {
          "account": "Address of user deleting the contact",
          "deletedContactId": "The Id of contact to be deleted isAddressOwner modifier must be provided"
        }
      },
      "getContact(address,uint8)": {
        "params": {
          "account": "Address of the user you want to retrieve contact",
          "contactId": "The id of contact you want to retrieve"
        },
        "returns": {
          "contactInfo": "String containing the contact information"
        }
      },
      "modifyContact(address,uint8,string)": {
        "params": {
          "account": "Address of user modifying the contact",
          "modifiedContactId": "The id of contact to be modified",
          "modifiedContactInfo": "String containing modified contact information isAddressOwner modifier must be provided"
        }
      },
      "setContact(address,string)": {
        "params": {
          "account": "Address of user storing the contact",
          "contactInfo": "String containing contact information isAddressOwner modifier must be provided"
        }
      }
    },
    "version": 1
  },
  "userdoc": {
    "events": {
      "ContactAdded(address,uint8)": {
        "notice": "Emitted when contact is added"
      },
      "ContactDeleted(address)": {
        "notice": "Emitted when contact is deleted"
      },
      "ContactModified(address)": {
        "notice": "Emitted when contact is modified"
      }
    },
    "kind": "user",
    "methods": {
      "deleteContact(address,uint8)": {
        "notice": "Delete contact, can only be owner of account addres"
      },
      "getContact(address,uint8)": {
        "notice": "Retrieve data of a specific contact information"
      },
      "modifyContact(address,uint8,string)": {
        "notice": "Modify contact information, can only be owner of account addres"
      },
      "setContact(address,string)": {
        "notice": "Store contact information, can only be owner of account addres"
      }
    },
    "version": 1
  }
}